:020000040000FA
:0200000007F403
:0200010007DE18
:0200020007C530
:0200030007AD47
:0200040007985B
:02000500078270
:02000600076A87
:0200070007569A
:020008000740AF
:02000900072CC2
:02000A000719D4
:02000B000701EB
:02000C0006F1FB
:02000D0006DA11
:02000E0006C921
:02000F0006B534
:0200100006A246
:02001100068E59
:02001200067D69
:02001300066C79
:0200140006588C
:0200150006489B
:020016000636AC
:020017000627BA
:020018000614CC
:020019000605DA
:02001A0005F4EB
:02001B0005E3FB
:02001C0005D508
:02001D0005C21A
:02001E0005B526
:02001F0005A634
:02002000059643
:0200210005894F
:0200220005785F
:02002300056B6B
:02002400055E77
:02002500054C88
:02002600053F94
:020027000532A0
:020028000526AB
:02002900051BB5
:02002A00050BC4
:02002B0004FFD0
:02002C0004F2DC
:02002D0004E6E7
:02002E0004DAF2
:02002F0004CB00
:0200300004C109
:0200310004B613
:0200320004AA1E
:02003300049E29
:02003400049135
:0200350004873E
:02003600047D47
:02003700047251
:0200380004655D
:02003900045D64
:02003A0004516F
:02003B0004447B
:02003C00043B83
:02003D0004338A
:02003E00042993
:02003F00041BA0
:020040000412A8
:020041000409B0
:020042000400B8
:0200430003F6C2
:0200440003EDCA
:0200450003E6D0
:0200460003DBDA
:0200470003D1E3
:0200480003CAE9
:0200490003C0F2
:02004A0003B7FA
:02004B0003AF01
:02004C0003A807
:02004D00039D11
:02004E00039518
:02004F00038D1F
:02005000038724
:0200510003802A
:02005200037831
:02005300036D3B
:02005400036641
:02005500035E48
:0200560003564F
:02005700034E56
:0200580003495A
:02005900033F63
:02005A00033A67
:02005B0003326E
:02005C00032A75
:02005D0003247A
:02005E00031F7E
:02005F00031686
:02006000030F8C
:02006100030991
:02006200030594
:0200630002FC9D
:0200640002F7A1
:0200650002F1A6
:0200660002EBAB
:0200670002E5B0
:0200680002DFB5
:0200690002D7BC
:02006A0002D1C1
:02006B0002CDC4
:02006C0002C8C8
:02006D0002BFD0
:02006E0002BAD4
:02006F0002B3DA
:0200700002AEDE
:0200710002A9E2
:0200720002A4E6
:02007300029EEB
:020074000298F0
:020075000293F4
:02007600028EF8
:020077000289FC
:020078000285FF
:02007900028102
:02007A00027A08
:02007B0002740D
:02007C00026E12
:02007D00026A15
:02007E00026717
:02007F0002611C
:02008000025C20
:02008100025823
:02008200025327
:02008300025029
:02008400024A2E
:02008500024433
:02008600024135
:02008700023E37
:02008800023A3A
:0200890002353E
:02008A00023240
:02008B00022A47
:02008C0002264A
:02008D0002224D
:02008E0002204E
:02008F00021A53
:02009000021755
:02009100021358
:0200920002105A
:02009300020B5E
:02009400020662
:02009500020265
:0200960001FF68
:0200970001FD69
:0200980001F76E
:0200990001F470
:02009A0001F271
:02009B0001ED75
:02009C0001E879
:02009D0001E57B
:02009E0001E17E
:02009F0001DE80
:0200A00001DB82
:0200A10001D884
:0200A20001D586
:0200A30001D288
:0200A40001D089
:0200A50001CA8E
:0200A60001C88F
:0200A70001C591
:0200A80001C194
:0200A90001BE96
:0200AA0001BA99
:0200AB0001B89A
:0200AC0001B59C
:0200AD0001B0A0
:0200AE0001AFA0
:0200AF0001AEA0
:0200B00001A6A7
:0200B10001A4A8
:0200B20001A2A9
:0200B300019EAC
:0200B400019DAC
:0200B500019BAD
:0200B6000198AF
:0200B7000197AF
:0200B8000191B4
:0200B9000190B4
:0200BA00018DB6
:0200BB000189B9
:0200BC000186BB
:0200BD000184BC
:0200BE000183BC
:0200BF000182BC
:0200C000017FBE
:0200C100017BC1
:0200C2000178C3
:0200C3000175C5
:0200C4000172C7
:0200C5000170C8
:0200C600016FC8
:0200C7000169CD
:0200C8000168CD
:0200C9000167CD
:0200CA000166CD
:0200CB000162D0
:0200CC00015FD2
:0200CD00015DD3
:0200CE00015BD4
:0200CF000158D6
:0200D0000155D8
:0200D1000153D9
:0200D2000152D9
:0200D3000150DA
:0200D400014CDD
:0200D500014ADE
:0200D6000148DF
:0200D7000148DE
:0200D8000146DF
:0200D9000145DF
:0200DA00013FE4
:0200DB00013EE4
:0200DC00013BE6
:0200DD00013BE5
:0200DE000139E6
:0200DF000136E8
:0200E0000134E9
:0200E1000132EA
:0200E2000132E9
:0200E3000131E9
:0200E400012DEC
:0200E500012BED
:0200E600012BEC
:0200E700012AEC
:0200E8000128ED
:0200E9000126EE
:0200EA000124EF
:0200EB000124EE
:0200EC000122EF
:0200ED00011EF2
:0200EE00011CF3
:0200EF00011BF3
:0200F0000117F6
:0200F1000117F5
:0200F2000116F5
:0200F3000114F6
:0200F4000112F7
:0200F5000110F8
:0200F600010FF8
:0200F700010DF9
:0200F800010CF9
:0200F900010AFA
:0200FA000107FC
:0200FB000106FC
:0200FC000106FB
:0200FD000105FB
:0200FE000104FB
:0200FF0000FF00
:00000001ff
