:020000040000FA
:0400000008000004F0
:0400010007F807FCF9
:0400020007F01FC420
:0400030007E8472E95
:0400040007E07E0C87
:0400050007D8C42F25
:0400060007D1196B9A
:0400070007C97D9513
:0400080007C1F080BC
:0400090007BA7202BE
:04000A0007B301F146
:04000B0007ABA0227D
:04000C0007A44C6F8A
:04000D00079D06AD98
:04000E000795CEB6CE
:04000F00078EA46252
:040010000787878B4C
:040011000780780BE1
:04001200077975BD38
:040013000772807B75
:04001400076B9821BD
:040015000764BC8D33
:04001600075DED99FC
:0400170007572B2438
:040018000750750B0D
:040019000749CB2D9B
:04001A0007432D6803
:04001B00073C9B9B68
:04001C00073615A6E8
:04001D00072F9B69A5
:04001E0007292CC5BD
:04001F000722C99B50
:04002000071C71CB7D
:040021000716253861
:04002200070FE3C41D
:040023000709AD52CA
:04002400070381C588
:0400250006FD60FF75
:0400260006F74AE6A9
:0400270006F13F5D42
:0400280006EB3E495C
:0400290006E5478F12
:04002A0006DF5B137F
:04002B0006D978BDBD
:04002C0006D3A071E6
:04002D0006CDD21713
:04002E0006C80D945F
:04002F0006C252D0E3
:0400300006BCA1B3B6
:0400310006B6FA24F1
:0400320006B15C0BAC
:0400330006ABC75001
:0400340006A63BDC05
:0400350006A0B998D0
:04003600069B406E77
:040037000695D04614
:040038000690690ABB
:04003900068B0AA682
:04003A000685B50280
:04003B000680680AC9
:04003C00067B23A973
:04003D000675E7CA93
:04003E000670B4583C
:04003F00066B893E85
:040040000666666A80
:0400410006614BC742
:04004200065C3942DD
:0400430006572EC767
:0400440006522C43F1
:04004500064D31A48F
:0400460006483ED654
:04004700064353C851
:04004800063E706898
:04004900063994A33D
:04004A000634C06751
:04004B00062FF3A4E5
:04004C00062B2E4809
:04004D0006267041D2
:04004E000621B9804E
:04004F00061D09F38E
:040050000618618AA3
:040051000613C0359D
:04005200060F25E38D
:04005300060A928483
:040054000606060A8C
:0400550006018064BC
:0400560005FD018320
:0400570005F88958C7
:0400580005F417D4C0
:0400590005EFACE81B
:04005A0005EB4886E4
:04005B0005E6EA9F2D
:04005C0005E2932402
:04005D0005DE420872
:04005E0005D9F73D8C
:04005F0005D5B2B45D
:0400600005D17461F1
:0400610005CD3C3558
:0400620005C90A249E
:0400630005C4DE1FD3
:0400640005C0B81B00
:0400650005BC980A34
:0400660005B87DDF7D
:0400670005B4698EE5
:0400680005B05B0A7A
:0400690005AC524749
:04006A0005A84F385E
:04006B0005A451D3C4
:04006C0005A05A0A87
:04006D00059C67D1B6
:04006E0005987B1F57
:04006F00059493E57C
:040070000590B21A2B
:04007100058CD5B273
:040072000588FEA25D
:0400730005852CDEF5
:040074000581605C46
:04007500057D99115B
:040076000579D6F240
:04007700057619F5FC
:040078000572620F9C
:04007900056EAF362B
:04007A00056B015FB2
:04007B00056758803D
:04007C000563B490D4
:04007D000560158481
:04007E00055C7B534F
:04007F000558E5F348
:040080000555555974
:040081000551C97EDE
:04008200054E42568F
:04008300054ABFDA91
:04008400054741FFEC
:040085000543C8BCAB
:0400860005405409D4
:04008700053CE3DD74
:040088000539782E90
:04008900053610F434
:04008A000532AE2667
:04008B00052F4FBB33
:04008C00052BF5AC9F
:04008D0005289FEFB4
:04008E0005254E7D79
:04008F000522014CF9
:04009000051EB8563B
:04009100051B739147
:04009200051832F625
:040093000514F67DDD
:040094000511BE1D77
:04009500050E89D0FB
:04009600050B598D70
:0400970005082D4EDD
:04009800050505094C
:040099000501E0B8C5
:04009A0004FEC0544C
:04009B0004FBA3D5EA
:04009C0004F88B33A6
:04009D0004F5766888
:04009E0004F2656D96
:04009F0004EF583AD8
:0400A00004EC4EC955
:0400A10004E9491213
:0400A20004E6470F1A
:0400A30004E348B971
:0400A40004E04E091D
:0400A50004DD56F828
:0400A60004DA638194
:0400A70004D7739C6B
:0400A80004D48743B2
:0400A90004D19E6F71
:0400AA0004CEB91BAC
:0400AB0004CBD73F6C
:0400AC0004C8F8D7B5
:0400AD0004C61DDA8E
:0400AE0004C34644FD
:0400AF0004C0720F08
:0400B00004BDA133B7
:0400B10004BAD3AC0E
:0400B20004B8097411
:0400B30004B54284CA
:0400B40004B27ED73D
:0400B50004AFBE686E
:0400B60004AD012F65
:0400B70004AA472927
:0400B80004A7904EBB
:0400B90004A4DC9B24
:0400BA0004A22C0967
:0400BB00049F7E928E
:0400BC00049CD4329A
:0400BD00049A2CE392
:0400BE00049788A07B
:0400BF000494E7645A
:0400C0000492492934
:0400C100048FADEA11
:0400C200048D15A2F2
:0400C300048A804DDE
:0400C4000487EDE4DC
:0400C50004855E64EC
:0400C6000482D1C718
:0400C7000480480861
:0400C800047DC123CF
:0400C900047B3D1364
:0400CA000478BBD328
:0400CB0004763D5E1C
:0400CC000473C1AF49
:0400CD00047148C3AF
:0400CE00046ED29456
:0400CF00046C5F1E40
:0400D0000469EE5C75
:0400D1000467804AF6
:0400D200046514E4C9
:0400D3000462AC25F2
:0400D4000460460876
:0400D500045DE28A5A
:0400D600045B81A6A0
:0400D700045923584D
:0400D8000456C79C67
:0400D90004546E6DF0
:0400DA00045217C7EE
:0400DB00044FC3A764
:0400DC00044D720855
:0400DD00044B22E6C8
:0400DE000448D63EBE
:0400DF0004468C0A3D
:0400E0000444444848
:0400E1000441FEF3E5
:0400E200043FBC0813
:0400E300043D7B83DA
:0400E400043B3D5F3D
:0400E5000439019940
:0400E6000436C82EE6
:0400E7000434911A32
:0400E80004325C582A
:0400E900043029E6D0
:0400EA00042DF9BF29
:0400EB00042BCBE136
:0400EC000429A047FC
:0400ED00042776EE80
:0400EE0004254FD2C4
:0400EF0004232AF1CB
:0400F0000421084699
:0400F100041EE7CE34
:0400F200041CC9879A
:0400F300041AAD6BD3
:0400F40004189379E0
:0400F50004167BACC6
:0400F6000414660286
:0400F7000412527726
:0400F80004104108A7
:0400F900040E31B20E
:0400FA00040C24715D
:0400FB00040A194397
:0400FC0004081024C0
:0400FD0004060912DA
:0400FE0004040408EA
:0400FF0004020104F2
:00000001ff
