:020000040000FA
:03000000080004F1
:03000100080FEBFA
:03000200081FA62E
:03000300082F3192
:03000400083E8B28
:03000500084DBBE8
:03000600085CC0D3
:03000700086B95EE
:03000800087A4231
:030009000888C3A1
:03000A000897193B
:03000B0008A54CF9
:03000C0008B34EE8
:03000D0008C12FF8
:03000E0008CEE435
:03000F0008DC7595
:0300100008E9DF1D
:0300110008F724C9
:030012000904419D
:0300130009113B95
:03001400091E14AE
:03001500092AC4F1
:0300160009375552
:030017000943C1D9
:0300180009500E7E
:03001900095C3649
:03001A0009683F33
:03001B000974283D
:03001C00097FEF6A
:03001D00098B9AB2
:03001E000997211E
:03001F0009A28AA9
:0300200009ADD750
:0300210009B90416
:0300220009C416F8
:0300230009CF08FA
:0300240009D9DD1A
:0300250009E49B50
:0300260009EF38A7
:0300270009F9BA1A
:030028000A0420A7
:030029000A0E6A52
:03002A000A189F12
:03002B000A22B5F1
:03002C000A2CB4E7
:03002D000A3697F9
:03002E000A406322
:03002F000A4A1862
:030030000A53B0C0
:030031000A5D3134
:030032000A669BC0
:030033000A6FEE63
:030034000A792B1B
:030035000A824FED
:030036000A8B5BD7
:030037000A9453D5
:030038000A9D37E7
:030039000AA60014
:03003A000AAEB853
:03003B000AB75BA6
:03003C000ABFE612
:03003D000AC85B93
:03003E000AD0BE27
:03003F000AD911CA
:030040000AE14B87
:030041000AE97257
:030042000AF1853B
:030043000AF98631
:030044000B017439
:030045000B094D57
:030046000B111883
:030047000B18CFC4
:030048000B207119
:030049000B28047D
:03004A000B2F86F3
:03004B000B36F57C
:03004C000B3E5216
:03004D000B45A2BE
:03004E000B4CDE7A
:03004F000B540A45
:030050000B5B2423
:030051000B622E11
:030052000B692A0D
:030053000B701916
:030054000B76F434
:030055000B7DC15F
:030056000B847F99
:030057000B8B2EE2
:030058000B91CC3D
:030059000B985FA2
:03005A000B9EDF1B
:03005B000BA5539F
:03005C000BABBA31
:03005D000BB211D2
:03005E000BB85983
:03005F000BBE973E
:030060000BC4C509
:030061000BCAE6E1
:030062000BD0F7C9
:030063000BD700B8
:030064000BDCF8BA
:030065000BE2E4C7
:030066000BE8C4E0
:030067000BEE9706
:030068000BF45E38
:030069000BFA1A75
:03006A000BFFCABF
:03006B000C056A17
:03006C000C0B007A
:03006D000C108FE5
:03006E000C160C61
:03006F000C1B82E5
:030070000C20EA77
:030071000C264713
:030072000C2B98BC
:030073000C30E06E
:030074000C361D2A
:030075000C3B4EF3
:030076000C4075C6
:030077000C4591A4
:030078000C4AA28D
:030079000C4FA881
:03007A000C54A77C
:03007B000C599C81
:03007C000C5E8691
:03007D000C6365AC
:03007E000C6839D2
:03007F000C6D0500
:030080000C71C937
:030081000C76807A
:030082000C7B31C3
:030083000C7FD51A
:030084000C847376
:030085000C8909DA
:030086000C8D934B
:030087000C9213C5
:030088000C968C47
:030089000C9AFDD1
:03008A000C9F6464
:03008B000CA3C7FC
:03008C000CA81DA0
:03008D000CAC6C4C
:03008E000CB0B003
:03008F000CB4F0BE
:030090000CB92484
:030091000CBD5251
:030092000CC17727
:030093000CC59504
:030094000CC9ADE7
:030095000CCDBBD4
:030096000CD1C2C8
:030097000CD5BEC7
:030098000CD9B8C8
:030099000CDDA8D3
:03009A000CE18FE7
:03009B000CE57100
:03009C000CE94D1F
:03009D000CED2047
:03009E000CF0EC77
:03009F000CF4B1AD
:0300A0000CF86EEB
:0300A1000CFC252F
:0300A2000CFFD57B
:0300A3000D037ECC
:0300A4000D072025
:0300A5000D0ABF82
:0300A6000D0E53E9
:0300A7000D11E256
:0300A8000D156BC8
:0300A9000D18EE41
:0300AA000D1C6AC0
:0300AB000D1FE046
:0300AC000D234ED3
:0300AD000D26BA63
:0300AE000D2A1CFC
:0300AF000D2D779D
:0300B0000D30D33D
:0300B1000D3424E7
:0300B2000D376E99
:0300B3000D3AB54E
:0300B4000D3DF40B
:0300B5000D412CCE
:0300B6000D446294
:0300B7000D478F63
:0300B8000D4ABC32
:0300B9000D4DDE0C
:0300BA000D50FCEA
:0300BB000D5417CA
:0300BC000D572BB2
:0300BD000D5A39A0
:0300BE000D5D4194
:0300BF000D60438E
:0300C0000D63428B
:0300C1000D663D8C
:0300C2000D693392
:0300C3000D6C229F
:0300C4000D6F0EAF
:0300C5000D71F3C7
:0300C6000D74D3E3
:0300C7000D77B200
:0300C8000D7A8826
:0300C9000D7D5951
:0300CA000D802581
:0300CB000D82EFB4
:0300CC000D85B5EA
:0300CD000D887427
:0300CE000D8B2F68
:0300CF000D8DE6AE
:0300D0000D9099F7
:0300D1000D934745
:0300D2000D95EF9A
:0300D3000D9893F2
:0300D4000D9B364B
:0300D5000D9DD2AC
:0300D6000DA06A10
:0300D7000DA2FC7B
:0300D8000DA58BE8
:0300D9000DA81659
:0300DA000DAAA1CB
:0300DB000DAD2345
:0300DC000DAFA3C2
:0300DD000DB21D44
:0300DE000DB493CB
:0300DF000DB70852
:0300E0000DB977E0
:0300E1000DBBE371
:0300E2000DBE4907
:0300E3000DC0ABA2
:0300E4000DC30D3C
:0300E5000DC56ADC
:0300E6000DC7C182
:0300E7000DCA142B
:0300E8000DCC66D6
:0300E9000DCEB386
:0300EA000DD0FE38
:0300EB000DD342F0
:0300EC000DD585AA
:0300ED000DD7C666
:0300EE000DDA0325
:0300EF000DDC3AEB
:0300F0000DDE71B1
:0300F1000DE0A27D
:0300F2000DE2CE4E
:0300F3000DE4FA1F
:0300F4000DE721F4
:0300F5000DE946CC
:0300F6000DEB66A9
:0300F7000DED8488
:0300F8000DEF9E6B
:0300F9000DF1B551
:0300FA000DF3CB38
:0300FB000DF5DB25
:0300FC000DF7E815
:0300FD000DF9F109
:0300FE000DFBF9FE
:0300FF000DFE01F2
:00000001ff
