:020000040000FA
:050000001000000004E7
:050001000FF00FF014E8
:050002000FE03F810248
:050003000FD08E550531
:050004000FC0FC0FC558
:050005000FB188565404
:050006000FA232CF291A
:050007000F92FB221521
:050008000F83E0F84247
:050009000F74E3FC2769
:05000A000F6603D9851B
:05000B000F57403D61AC
:05000C000F4898D5FC2F
:05000D000F3A0D52D076
:05000E000F2B9D64852D
:05000F000F1D48BCF2CA
:050010000F0F0F0F139C
:050011000F00F00F05D7
:050012000EF2EB72008C
:050013000EE500EE54B3
:050014000ED7303B6136
:050015000EC9791193F2
:050016000EBBDB2A60B7
:050017000EAE56403F53
:050018000EA0EA0EA598
:050019000E9396520257
:05001A000E865AC7BB71
:05001B000E79372E26CE
:05001C000E6C2B448670
:05001D000E5F36CB056B
:05001E000E525982B3EF
:05001F000E45932D8247
:050020000E38E38E3DE7
:050021000E2C4A688B63
:050022000E1FC780E67F
:050023000E135A9C9B26
:050024000E070381C579
:050025000DFAC1F747D0
:050026000DEE95C4CEB3
:050027000DE27EB2C8ED
:050028000DD67C8A6585
:050029000DCA8F1590C7
:05002A000DBEB61EF141
:05002B000DB2F171E3CC
:05002C000DA740DA7889
:05002D000D9BA42570ED
:05002E000D901B203ABB
:05002F000D84A598F10D
:050030000D79435E554F
:050031000D6DF43FCE4F
:050032000D62B80D672E
:050033000D578E97C877
:050034000D4C77B0390E
:050035000D4173289C41
:050036000D3680D36CC3
:050037000D2BA083B8B1
:050038000D20D20D2592
:050039000D161543E760
:05003A000D0B69FCC183
:05003B000D00D00D05D1
:05003C000CF6474A8CA0
:05003D000CEBCF8BBAB3
:05003E000CE168A7764B
:05003F000CD712752E24
:050040000CCCCCCCD17A
:050041000CC29786CB04
:050042000CB8727C0AFD
:050043000CAE5D85F626
:050044000CA4587E6FC2
:050045000C9A633FD29C
:050046000C907DA4EC0C
:050047000C86A78905ED
:050048000C7CE0C7D2B2
:050049000C73293D7D50
:05004A000C6980C69C5A
:05004B000C5FE74035E9
:05004C000C565C87BAB0
:05004D000C4CE07B05F6
:05004E000C4372F85A9A
:05004F000C3A13DE6411
:050050000C30C30C356B
:050051000C2780614056
:050052000C1E4BBD5D1A
:050053000C152500C59D
:050054000C0C0C0C1067
:050055000C0300C034A3
:050056000BFA02FE851B
:050057000BF112A8B13D
:050058000BE82FA0C21F
:050059000BDF59C91B7B
:05005A000BD6910474B7
:05005B000BCDD535DFDF
:05005C000BC52640C0A9
:05005D000BBC8408D17A
:05005E000BB3EE721E61
:05005F000BAB6561051B
:050060000BA2E8BA3319
:050061000B9A7862A576
:050062000B92143FA702
:050063000B89BC36D240
:050064000B81702E0A63
:050065000B79300B7D5A
:050066000B70FBB5A6C4
:050067000B68D31345F6
:050068000B60B60B6502
:050069000B58A48556B0
:05006A000B509E68AE82
:05006B000B48A39D48B5
:05006C000B40B40B4540
:05006D000B38CF9B05DC
:05006E000B30F6352DFA
:05006F000B2927C2A2CD
:050070000B21642C8A45
:050071000B19AB5C4916
:050072000B11FD3B85B0
:050073000B0A59B41D49
:050074000B02C0B030DA
:050075000AFB321A191C
:050076000AF3ADDC6C93
:050077000AEC33E1FA80
:050078000AE4C415CEEE
:050079000ADD5E6328B2
:05007A000AD602B58565
:05007B000ACEB0F8966A
:05007C000AC7691845E8
:05007D000AC02B00B0D9
:05007E000AB8F69E2CFB
:05007F000AB1CBDD42D7
:050080000AAAAAAAAFC4
:050081000AA392F362E6
:050082000A9C84A47E2D
:050083000A957FAB5857
:050084000A8E83F575F2
:050085000A8791708D57
:050086000A80A80A85B4
:050087000A79C7B17306
:050088000A72F0539B19
:050089000A6C21DF728A
:05008A000A655C4397CC
:05008B000A5E9F6ED724
:05008C000A57EB502DA6
:05008D000A513FD6BF3F
:05008E000A4A9CF1DDAF
:05008F000A4402910586
:050090000A3D70A3DB36
:050091000A36E71A31F8
:050092000A3065E3FFE8
:050093000A29ECF168F0
:050094000A237C32B5D7
:050095000A1D13985A3A
:050096000A16B312EF91
:050097000A105A93332A
:050098000A0A0A0A0E2D
:050099000A03C1688BA1
:05009A0009FD809FDC60
:05009B0009F747A15721
:05009C0009F1165E767B
:05009D0009EAECC8D9DE
:05009E0009E4CAD24292
:05009F0009DEB06C96C3
:0500A00009D89D89DD77
:0500A10009D2921C4190
:0500A20009CC8E1610D0
:0500A30009C69169B7D8
:0500A40009C09C09C524
:0500A50009BAADE8E915
:0500A60009B4C6F9F3E6
:0500A70009AEE72FD4B3
:0500A80009A90E7D9A7C
:0500A90009A33CD67420
:0500AA00099D722DB05C
:0500AB000997AE76B9D3
:0500AC000991F1A51A05
:0500AD00098C3BAC7959
:0500AE0009868C809C16
:0500AF000980E4156664
:0500B000097B425ED552
:0500B1000975A75103D1
:0500B200097012E02AB4
:0500B300096A85009BB5
:0500B4000964FDA6C572
:0500B500095F7CC7316A
:0500B600095A02568505
:0500B70009548E497E92
:0500B800094F2094F641
:0500B9000949B92DE02A
:0500BA0009445809484B
:0500BB00093EFD1C558B
:0500BC000939A85C45B4
:0500BD00093459BE6F7B
:0500BE00092F11384478
:0500BF000929CEBF4D30
:0500C00009249249290A
:0500C100091F5BCB905C
:0500C200091A2B3C515E
:0500C300091500915435
:0500C400090FDBC095EF
:0500C500090ABCC0287F
:0500C6000905A38638C6
:0500C70009009009058D
:0500C80008FB823EE58B
:0500C90008F67A1E4458
:0500CA0008F1779DA480
:0500CB0008EC7AB39B74
:0500CC0008E78356D592
:0500CD0008E2917E1223
:0500CE0008DDA520275C
:0500CF0008D8BE33FD5E
:0500D00008D3DCB09133
:0500D10008CF008CF4D3
:0500D20008CA29C04A24
:0500D30008C55841CCF6
:0500D40008C08C08C506
:0500D50008BBC50C9200
:0500D60008B70344A57A
:0500D70008B246A882FA
:0500D80008AD8F2FBFF1
:0500D90008A8DCD203C1
:0500DA0008A42F8709B6
:0500DB00089F87469E0E
:0500DC00089AE4089FF2
:0500DD00089645C4FB7C
:0500DE000891AC73B3B2
:0500DF00088D180CD88B
:0500E000088888888DEE
:0500E1000883FDDF05AE
:0500E200087F7808838F
:0500E300087AF6FD5E45
:0500E40008767AB5F773
:0500E5000872032AC5AA
:0500E600086D90544C70
:0500E7000869222B1F37
:0500E8000864B8A7E266
:0500E900086053C34A4A
:0500EA00085BF376172E
:0500EB00085797B91B46
:0500EC000853408538B7
:0500ED00084EEDD35C9C
:0500EE00084A9F9C85FB
:0500EF00084655D9BFD1
:0500F000084210842508
:0500F100083DCF94E082
:0500F200083993052808
:0500F30008355ACE4162
:0500F400083126E97D42
:0500F500082CF7503D4E
:0500F6000828CBFBF01F
:0500F7000824A4E60F3F
:0500F80008208208252C
:0500F900081C635BC55B
:0500FA00081848DA942B
:0500FB000814327E40F4
:0500FC00081020408502
:0500FD00080C121B2D90
:0500FE00080808080CD1
:0500FF000804020104E9
:00000001ff
