:020000040000FA
:030000000FFFEB04
:030001000FD04FCE
:030002000FA169E2
:030003000F733E3A
:030004000F45C8DD
:030005000F18FED3
:030006000EECEB12
:030007000EC17BAC
:030008000E96C091
:030009000E6CA2D8
:03000A000E432181
:03000B000E1A4783
:03000C000DF1FBF8
:03000D000DCA5BBE
:03000E000DA341FE
:03000F000D7CBEA7
:030010000D56CCBE
:030011000D316F3F
:030012000D0C9042
:030013000CE844B2
:030014000CC48198
:030015000CA13209
:030016000C7E71EC
:030017000C5C304E
:030018000C3A6837
:030019000C1913AC
:03001A000BF83DA3
:03001B000BD7DE22
:03001C000BB7FE21
:03001D000B9883BA
:03001E000B7972E9
:03001F000B5AE594
:030020000B3CB9DD
:030021000B1EFAB9
:030022000B019C33
:030023000AE4A24A
:030024000AC81FE8
:030025000AABED36
:030026000A902815
:030027000A74BE9A
:030028000A59B7BB
:030029000A3F0487
:03002A000A24B6EF
:03002B000A0ABC02
:03002C0009F121B6
:03002D0009D7DC14
:03002E0009BEE226
:03002F0009A651CE
:03003000098E0135
:030031000975FE50
:03003200095E590B
:030033000946FD7E
:03003400092FE8A9
:0300350009192482
:030036000902B20A
:0300370008EC7C56
:0300380008D6A245
:0300390008C106F5
:03003A0008ABA36D
:03003B000896988C
:03003C000881C870
:03003D00086D4407
:03003E000858EE71
:03003F000844DF93
:0300400008312262
:03004100081D9007
:03004200080A4861
:0300430007F73F7D
:0300440007E46569
:0300450007D1D808
:0300460007BF6C85
:0300470007AD53AF
:03004800079B65AE
:030049000789B56F
:03004A0007783301
:03004B000766E560
:03004C000755DC79
:03004D000744FE67
:03004E000734551F
:03004F000723D3B1
:03005000071398FB
:0300510007038022
:0300520006F3971B
:0300530006E3E6DB
:0300540006D4636C
:0300550006C510CD
:0300560006B5EB01
:0300570006A6E812
:03005800069814F3
:030059000689779E
:03005A00067AFA29
:03005B00066CB17F
:03005C00065E8BB2
:03005D0006508FBB
:03005E000642C295
:03005F0006352043
:030060000627A3CD
:03006100061A413B
:03006200060D0385
:0300630005FFF99D
:0300640005F31D84
:0300650005E6515C
:0300660005D9B900
:0300670005CD3D87
:0300680005C0E7E9
:0300690005B4B625
:03006A0005A89D49
:03006B00059CA64B
:03006C000590E21A
:03006D00058534D2
:03006E000579A869
:03006F00056E39E2
:030070000562ED39
:030071000557B37D
:03007200054CAC8E
:030073000541BC88
:030074000536E668
:03007500052C3720
:03007600052197CA
:0300770005171753
:03007800050CC5AF
:0300790005027FFE
:03007A0004F8592E
:03007B0004EE4D43
:03007C0004E45D3C
:03007D0004DA871B
:03007E0004D0C6E5
:03007F0004C7268D
:0300800004BDA616
:0300810004B43490
:0300820004AADBF2
:0300830004A19C39
:030084000498716C
:03008500048F6F76
:0300860004867C71
:03008700047D9E57
:030088000474CC31
:03008900046C1FE5
:03008A0004638F7D
:03008B00045B0112
:03008C0004529388
:03008D00044A41E1
:03008E000441FC2E
:03008F000439D859
:030090000431BE7A
:030091000429BB84
:030092000421CE78
:030093000419F15C
:0300940004122231
:03009500040A74E6
:030096000402DE83
:0300970003FB4424
:0300980003F3CFA0
:0300990003EC6510
:03009A0003E50E6D
:03009B0003DDD0B2
:03009C0003D698F0
:03009D0003CF7A14
:03009E0003C8751F
:03009F0003C17F1B
:0300A00003BA9010
:0300A10003B3ABFB
:0300A20003ACE6C6
:0300A30003A6327F
:0300A400039F9027
:0300A5000398F5C8
:0300A60003926A58
:0300A700038BF9CF
:0300A80003858B42
:0300A900037F2DA5
:0300AA000378E6F2
:0300AB000372AA33
:0300AC00036C835F
:0300AD0003665F88
:0300AE00036049A3
:0300AF00035A51A0
:0300B00003546393
:0300B100034E718A
:0300B2000348A957
:0300B3000342E025
:0300B400033D26E3
:0300B5000337719D
:0300B6000331D53E
:0300B700032C3ED9
:0300B8000326B666
:0300B90003213BE5
:0300BA00031BCB5A
:0300BB00031672B7
:0300BC000311230A
:0300BD00030BD260
:0300BE00030692A4
:0300BF0003016BCF
:0300C00002FC4BF4
:0300C10002F72D16
:0300C20002F21A2D
:0300C30002ED1B30
:0300C40002E82A25
:0300C50002E3391A
:0300C60002DE60F7
:0300C70002D990CB
:0300C80002D4C29D
:0300C90002D00062
:0300CA0002CB4E18
:0300CB0002C69BCF
:0300CC0002C1FB73
:0300CD0002BD640D
:0300CE0002B8D89D
:0300CF0002B45622
:0300D00002AFE29A
:0300D10002AB750A
:0300D20002A70F73
:0300D30002A2B8CE
:0300D400029E7019
:0300D500029A2468
:0300D6000295DFB1
:0300D7000291ADE6
:0300D800028D880E
:0300D90002895F3A
:0300DA000285415B
:0300DB000281316E
:0300DC00027D2E74
:0300DD0002792E77
:0300DE0002753D6B
:0300DF0002714D5E
:0300E000026D6846
:0300E10002698829
:0300E2000265A60E
:0300E3000261E8CF
:0300E400025E17A2
:0300E500025A5A62
:0300E6000256A817
:0300E7000252F9C9
:0300E800024F4D77
:0300E900024BBB0C
:0300EA0002481CAD
:0300EB0002448448
:0300EC00024100CE
:0300ED00023D864B
:0300EE00023A10C3
:0300EF0002369A3C
:0300F000023328B0
:0300F100022FBF1C
:0300F200022C6875
:0300F300022916C9
:0300F4000225C61C
:0300F5000222766E
:0300F600021F3CAA
:0300F700021BF6F3
:0300F8000218CC1F
:0300F90002159558
:0300FA000212737C
:0300FB00020F51A0
:0300FC00020C33C0
:0300FD0002091ED7
:0300FE0002060CEB
:0300FF000202FBFF
:00000001ff
