:020000040000FA
:0200000020429C
:0200010020BA23
:020002002138A3
:0200030021B02A
:020004002227B1
:0200050022A037
:02000600230FC6
:02000700238450
:0200080023E7EC
:0200090024547D
:02000A0024C20E
:02000B002522AC
:02000C0025933A
:02000D0025ECE0
:02000E00265476
:02000F0026B613
:020010002716B1
:02001100276A5C
:0200120027CEF7
:020013002823A0
:0200140028744E
:0200150028D6EB
:02001600292798
:02001700297846
:0200180029C8F5
:020019002A2398
:02001A002A7347
:02001B002AC2F7
:02001C002B02B5
:02001D002B5165
:02001E002BA60F
:02001F002BE0D4
:020020002C258D
:020021002C6849
:020022002CB000
:020023002CFEB1
:020024002D327B
:020025002D7E2E
:020026002DBAF1
:020027002DFCAE
:020028002E3771
:020029002E7A2D
:02002A002EB3F3
:02002B002EF0B5
:02002C002F267D
:02002D002F5A48
:02002E002F9B06
:02002F002FC1DF
:020030002FFCA3
:02003100303B62
:02003200306A32
:02003300309CFF
:0200340030D7C3
:02003500310A8E
:02003600313463
:02003700317026
:02003800319104
:0200390031BED6
:02003A0031FA99
:02003B00321E73
:02003C00324B45
:02003D00326E21
:02003E0032A9E5
:02003F0032DCB1
:0200400032F993
:02004100332B5F
:02004200334D3C
:02004300337117
:02004400339FE8
:0200450033BBCB
:0200460033F293
:02004700340A79
:02004800343151
:0200490034522F
:02004A00347B05
:02004B0034A6D9
:02004C0034BDC1
:02004D0034E29B
:02004E0035007B
:02004F0035304A
:02005000354435
:0200510035690F
:02005200358FE8
:0200530035AACC
:0200540035C8AD
:0200550035E193
:0200560035FC77
:0200570036234E
:0200580036462A
:02005900365D12
:02005A00367EF0
:02005B003697D6
:02005C0036B5B7
:02005D0036D398
:02005E0036E783
:02005F0036FB6E
:02006000371057
:02006100373333
:0200620037590C
:02006300376EF6
:020064003776ED
:020065003799C9
:0200660037AAB7
:0200670037C19F
:0200680037D788
:0200690037E975
:02006A00380953
:02006B00382536
:02006C00382F2B
:02006D00384514
:02006E003859FF
:02006F003871E6
:020070003885D1
:0200710038A5B0
:0200720038B2A2
:0200730038C48F
:0200740038DB77
:0200750038E869
:0200760039054A
:02007700391D31
:0200780039222B
:02007900393715
:02007A00394A01
:02007B00395BEF
:02007C00396EDB
:02007D00397ECA
:02007E003996B1
:02007F0039A5A1
:0200800039AD98
:0200810039C282
:0200820039D66D
:0200830039E959
:020084003A0040
:020085003A033C
:020086003A112D
:020087003A211C
:020088003A3C00
:020089003A4AF1
:02008A003A4CEE
:02008B003A69D0
:02008C003A78C0
:02008D003A81B6
:02008E003A91A5
:02008F003A969F
:020090003AA58F
:020091003AB47F
:020092003ABD75
:020093003ACF62
:020094003AE44C
:020095003AEB44
:020096003AEC42
:020097003B0824
:020098003B0E1D
:020099003B1E0C
:02009A003B2EFB
:02009B003B35F3
:02009C003B49DE
:02009D003B54D2
:02009E003B55D0
:02009F003B59CB
:0200A0003B6BB8
:0200A1003B839F
:0200A2003B8899
:0200A3003B8D93
:0200A4003B918E
:0200A5003BA07E
:0200A6003BAD70
:0200A7003BAF6D
:0200A8003BC05B
:0200A9003BD04A
:0200AA003BD643
:0200AB003BE137
:0200AC003BE631
:0200AD003BF71F
:0200AE003C080C
:0200AF003C070C
:0200B0003C0D05
:0200B1003C26EB
:0200B2003C1DF3
:0200B3003C27E8
:0200B4003C2EE0
:0200B5003C3FCE
:0200B6003C44C8
:0200B7003C50BB
:0200B8003C5AB0
:0200B9003C65A4
:0200BA003C7098
:0200BB003C6F98
:0200BC003C7294
:0200BD003C8580
:0200BE003C9272
:0200BF003C8F74
:0200C0003C9171
:0200C1003CA160
:0200C2003CAE52
:0200C3003CB44B
:0200C4003CB44A
:0200C5003CC439
:0200C6003CC339
:0200C7003CC536
:0200C8003CD228
:0200C9003CDC1D
:0200CA003CDE1A
:0200CB003CF106
:0200CC003CF7FF
:0200CD003CFFF6
:0200CE003D07EC
:0200CF003D0FE3
:0200D0003D10E1
:0200D1003D17D9
:0200D2003D1ED1
:0200D3003D21CD
:0200D4003D1ECF
:0200D5003D28C4
:0200D6003D36B5
:0200D7003D39B1
:0200D8003D38B1
:0200D9003D45A3
:0200DA003D4E99
:0200DB003D5492
:0200DC003D5491
:0200DD003D598B
:0200DE003D578C
:0200DF003D5F83
:0200E0003D637E
:0200E1003D6B75
:0200E2003D7D62
:0200E3003D706E
:0200E4003D825B
:0200E5003D8755
:0200E6003D8A51
:0200E7003D8F4B
:0200E8003D9940
:0200E9003D8F49
:0200EA003D9F38
:0200EB003DAC2A
:0200EC003DAE27
:0200ED003DA92B
:0200EE003DA92A
:0200EF003DB220
:0200F0003DBF12
:0200F1003DC808
:0200F2003DC50A
:0200F3003DC608
:0200F4003DC805
:0200F5003DD5F7
:0200F6003DD0FB
:0200F7003DE1E9
:0200F8003DD8F1
:0200F9003DE5E3
:0200FA003DE3E4
:0200FB003DE8DE
:0200FC003DEDD8
:0200FD003DF2D2
:0200FE003DF9CA
:0200FF003E06BB
:00000001ff
