:020000040000FA
:0400000010000004E8
:04000100101FD042BA
:04000200103F41FE6C
:04000300105E56AA8B
:04000400107D0FB4A8
:04000500109B6E8757
:0400060010B9747A3F
:0400070010D722F0FC
:0400080010F47B3144
:0400090011117E92C1
:04000A00112E2E5A2B
:04000B00114A8BC348
:04000C001166980FD2
:04000D0011825464A4
:04000E00119DC2027C
:04000F0011B8E2083A
:0400100011D3B59BB8
:0400110011EE3DD7D8
:0400120012087BDD78
:04001300122270B78E
:04001400123C1D7706
:0400150012558330CD
:04001600126EA2DAEA
:0400170012877D7A55
:0400180012A014110D
:0400190012B867951D
:04001A0012D078F593
:04001B0012E849217D
:04001C0012FFD900F6
:04001D001317298309
:04001E00132E3B8AD8
:04001F0013450FE690
:04002000135BA78245
:040021001372032D26
:04002200138823C15B
:04002300139E0A0915
:0400240013B3B6CA92
:0400250013C92ADBF6
:0400260013DE66F58A
:0400270013F36BE183
:0400280014083A5925
:04002900141CD320B0
:04002A00143136E374
:04002B0014456661B1
:04002C0014596244BD
:04002D00146D2B41E2
:04002E001480C20771
:04002F0014942732CC
:0400300014A75B7A3C
:0400310014BA5F7D21
:0400320014CD33D3E3
:0400330014DFD926D7
:0400340014F2501062
:0400350015049927EE
:040036001516B500E6
:040037001528A439AB
:04003800153A6757B7
:04003900154BFEF570
:04003A00155D6BA441
:04003B00156EADE0B1
:04003C00157FC64026
:04003D001590B54124
:04003E0015A17B7617
:04003F0015B2195687
:0400400015C28F5CFA
:0400410015D2DE1ADC
:0400420015E305FDC0
:0400430015F3078228
:040044001602E32E8F
:040045001612996591
:0400460016222AB4A0
:040047001631977562
:040048001640E02D51
:040049001650054107
:04004A00165F07290D
:04004B00166DE64DFB
:04004C00167CA3106B
:04004D00168B3DE6EB
:04004E001699B73513
:04004F0016A80F667A
:0400500016B646D1C9
:0400510016C45DE98B
:0400520016D2550A63
:0400530016E02C90F7
:0400540016EDE4DDE4
:0400550016FB7E50C8
:040056001708F9434B
:04005700171656180A
:0400580017239522B3
:040059001730B6B4F2
:04005A00173DBB3261
:04005B00174AA2E5B9
:04005C0017576E2C98
:04005D0017641D55B2
:04005E001770B0B1B6
:04005F00177D289051
:040060001789854730
:040061001795C72800
:0400620017A1EE7C78
:0400630017ADFB8852
:0400640017B9EE9B3F
:0400650017C5C80BE8
:0400660017D1881115
:0400670017DD2F0270
:0400680017E8BD1EBA
:0400690017F432ADA9
:04006A0017FF8FF9F4
:04006B00180AD54456
:04006C00181602C69A
:04006D00182118D16D
:04006E00182C17A093
:04006F001836FF76CA
:040070001841D090D3
:04007100184C8B3666
:0400720018572F9359
:040073001861BDF55E
:04007400186C369539
:04007500187699A8B8
:040076001880E77592
:04007700188B202E94
:04007800189544048F
:04007900189F534237
:04007A0018A94E1360
:04007B0018B334B4CE
:04007C0018BD07574D
:04007D0018C6C636A5
:04007E0018D07185A0
:04007F0018DA09740E
:0400800018E38E36BD
:0400810018ED00076F
:0400820018F65F14F9
:0400830018FFAB8D2A
:040084001908E5A7CB
:0400850019120D87B8
:04008600191B2369B6
:040087001924277A97
:04008800192D19ED28
:040089001935FAE14A
:04008A00193ECA8BC6
:04008B001947892167
:04008C00195036C30E
:04008D001958D39D8E
:04008E0019615FE3B2
:04008F001969DBB35D
:040090001972474555
:04009100197AA2B97D
:040092001982EE3CA5
:04009300198B29F5A7
:040094001993561155
:04009500199B72AB96
:0400960019A37FF03B
:0400970019AB7E1310
:0400980019B36D2704
:0400990019BB4D5DE5
:04009A0019C31ED692
:04009B0019CAE1B5E8
:04009C0019D29627B8
:04009D0019DA3C45EB
:04009E0019E1D4345C
:04009F0019E95E1BE2
:0400A00019F0DA1F5A
:0400A10019F848639F
:0400A20019FFA8FD9D
:0400A3001A06FC1528
:0400A4001A0E41CB24
:0400A5001A157A4569
:0400A6001A1CA5A0DB
:0400A7001A23C3F560
:0400A8001A2AD56FCC
:0400A9001A31DA2707
:0400AA001A38D238F6
:0400AB001A3FBDC675
:0400AC001A469CE96B
:0400AD001A4D6FC9B0
:0400AE001A54367D2D
:0400AF001A5AF11ACE
:0400B0001A619FC56D
:0400B1001A6842A3E4
:0400B2001A6ED9B930
:0400B3001A7565361F
:0400B4001A7BE52F9F
:0400B5001A8259C38F
:0400B6001A88C302DF
:0400B7001A8F211269
:0400B8001A9574071A
:0400B9001A9BBBFBD8
:0400BA001AA1F90A84
:0400BB001AA82B460E
:0400BC001AAE52CE58
:0400BD001AB46FC141
:0400BE001ABA822EBA
:0400BF001AC08A29B0
:0400C0001AC687D302
:0400C1001ACC7B4496
:0400C2001AD2649258
:0400C3001AD843CC38
:0400C4001ADE190F18
:0400C5001AE3E475E1
:0400C6001AE9A60B82
:0400C7001AEF5DEDE2
:0400C8001AF50C34E5
:0400C9001AFAB0F27D
:0400CA001B004C3A91
:0400CB001B05DE270C
:0400CC001B0B66C7DD
:0400CD001B10E632EC
:0400CE001B165C7B26
:0400CF001B1BC9B777
:0400D0001B212DF9CA
:0400D1001B2689560B
:0400D2001B2BDBE425
:0400D3001B3125B008
:0400D4001B3666CEA3
:0400D5001B3B9F5BD7
:0400D6001B40CF6399
:0400D7001B45F6F3DC
:0400D8001B4B162088
:0400D9001B502D0586
:0400DA001B553BADCA
:0400DB001B5A422644
:0400DC001B5F4084E2
:0400DD001B6436DD8D
:0400DE001B69253C39
:0400DF001B6E0BB8D1
:0400E0001B72EA5E47
:0400E1001B77C14187
:0400E2001B7C90767D
:0400E3001B8157F92D
:0400E4001B8617F66A
:0400E5001B8AD06939
:0400E6001B8F816685
:0400E7001B942B0338
:0400E8001B98CD4E46
:0400E9001B9D684AA9
:0400EA001BA1FC1941
:0400EB001BA688C305
:0400EC001BAB0E4DEF
:0400ED001BAF8CCEEB
:0400EE001BB40455E6
:0400EF001BB874F3D3
:0400F0001BBCDEB4A3
:0400F1001BC141A549
:0400F2001BC59DCEBF
:0400F3001BC9F343EF
:0400F4001BCE4216C7
:0400F5001BD28A523E
:0400F6001BD6CBFB4F
:0400F7001BDB072FD9
:0400F8001BDF3BE8E7
:0400F9001BE36A4754
:0400FA001BE7924727
:0400FB001BEBB40047
:0400FC001BEFCF7EA9
:0400FD001BF3E4C845
:0400FE001BF7F3F009
:0400FF001BFBFD02E8
:00000001ff
